{
  "_format": "hh-sol-artifact-1",
  "contractName": "NFT",
  "sourceName": "contracts/NFT.sol",
  "abi": [
    {
      "inputs": [
        {
          "internalType": "address",
          "name": "marketplaceAddress",
          "type": "address"
        }
      ],
      "stateMutability": "nonpayable",
      "type": "constructor"
    },
    {
      "anonymous": false,
      "inputs": [
        {
          "indexed": true,
          "internalType": "address",
          "name": "owner",
          "type": "address"
        },
        {
          "indexed": true,
          "internalType": "address",
          "name": "approved",
          "type": "address"
        },
        {
          "indexed": true,
          "internalType": "uint256",
          "name": "tokenId",
          "type": "uint256"
        }
      ],
      "name": "Approval",
      "type": "event"
    },
    {
      "anonymous": false,
      "inputs": [
        {
          "indexed": true,
          "internalType": "address",
          "name": "owner",
          "type": "address"
        },
        {
          "indexed": true,
          "internalType": "address",
          "name": "operator",
          "type": "address"
        },
        {
          "indexed": false,
          "internalType": "bool",
          "name": "approved",
          "type": "bool"
        }
      ],
      "name": "ApprovalForAll",
      "type": "event"
    },
    {
      "anonymous": false,
      "inputs": [
        {
          "indexed": false,
          "internalType": "uint256",
          "name": "_fromTokenId",
          "type": "uint256"
        },
        {
          "indexed": false,
          "internalType": "uint256",
          "name": "_toTokenId",
          "type": "uint256"
        }
      ],
      "name": "BatchMetadataUpdate",
      "type": "event"
    },
    {
      "anonymous": false,
      "inputs": [
        {
          "indexed": false,
          "internalType": "uint256",
          "name": "_tokenId",
          "type": "uint256"
        }
      ],
      "name": "MetadataUpdate",
      "type": "event"
    },
    {
      "anonymous": false,
      "inputs": [
        {
          "indexed": true,
          "internalType": "address",
          "name": "from",
          "type": "address"
        },
        {
          "indexed": true,
          "internalType": "address",
          "name": "to",
          "type": "address"
        },
        {
          "indexed": true,
          "internalType": "uint256",
          "name": "tokenId",
          "type": "uint256"
        }
      ],
      "name": "Transfer",
      "type": "event"
    },
    {
      "inputs": [
        {
          "internalType": "address",
          "name": "to",
          "type": "address"
        },
        {
          "internalType": "uint256",
          "name": "tokenId",
          "type": "uint256"
        }
      ],
      "name": "approve",
      "outputs": [],
      "stateMutability": "nonpayable",
      "type": "function"
    },
    {
      "inputs": [
        {
          "internalType": "address",
          "name": "owner",
          "type": "address"
        }
      ],
      "name": "balanceOf",
      "outputs": [
        {
          "internalType": "uint256",
          "name": "",
          "type": "uint256"
        }
      ],
      "stateMutability": "view",
      "type": "function"
    },
    {
      "inputs": [
        {
          "internalType": "string",
          "name": "tokenURI",
          "type": "string"
        }
      ],
      "name": "createToken",
      "outputs": [
        {
          "internalType": "uint256",
          "name": "",
          "type": "uint256"
        }
      ],
      "stateMutability": "nonpayable",
      "type": "function"
    },
    {
      "inputs": [
        {
          "internalType": "uint256",
          "name": "tokenId",
          "type": "uint256"
        }
      ],
      "name": "getApproved",
      "outputs": [
        {
          "internalType": "address",
          "name": "",
          "type": "address"
        }
      ],
      "stateMutability": "view",
      "type": "function"
    },
    {
      "inputs": [
        {
          "internalType": "address",
          "name": "owner",
          "type": "address"
        },
        {
          "internalType": "address",
          "name": "operator",
          "type": "address"
        }
      ],
      "name": "isApprovedForAll",
      "outputs": [
        {
          "internalType": "bool",
          "name": "",
          "type": "bool"
        }
      ],
      "stateMutability": "view",
      "type": "function"
    },
    {
      "inputs": [],
      "name": "name",
      "outputs": [
        {
          "internalType": "string",
          "name": "",
          "type": "string"
        }
      ],
      "stateMutability": "view",
      "type": "function"
    },
    {
      "inputs": [
        {
          "internalType": "uint256",
          "name": "tokenId",
          "type": "uint256"
        }
      ],
      "name": "ownerOf",
      "outputs": [
        {
          "internalType": "address",
          "name": "",
          "type": "address"
        }
      ],
      "stateMutability": "view",
      "type": "function"
    },
    {
      "inputs": [
        {
          "internalType": "address",
          "name": "from",
          "type": "address"
        },
        {
          "internalType": "address",
          "name": "to",
          "type": "address"
        },
        {
          "internalType": "uint256",
          "name": "tokenId",
          "type": "uint256"
        }
      ],
      "name": "safeTransferFrom",
      "outputs": [],
      "stateMutability": "nonpayable",
      "type": "function"
    },
    {
      "inputs": [
        {
          "internalType": "address",
          "name": "from",
          "type": "address"
        },
        {
          "internalType": "address",
          "name": "to",
          "type": "address"
        },
        {
          "internalType": "uint256",
          "name": "tokenId",
          "type": "uint256"
        },
        {
          "internalType": "bytes",
          "name": "data",
          "type": "bytes"
        }
      ],
      "name": "safeTransferFrom",
      "outputs": [],
      "stateMutability": "nonpayable",
      "type": "function"
    },
    {
      "inputs": [
        {
          "internalType": "address",
          "name": "operator",
          "type": "address"
        },
        {
          "internalType": "bool",
          "name": "approved",
          "type": "bool"
        }
      ],
      "name": "setApprovalForAll",
      "outputs": [],
      "stateMutability": "nonpayable",
      "type": "function"
    },
    {
      "inputs": [
        {
          "internalType": "bytes4",
          "name": "interfaceId",
          "type": "bytes4"
        }
      ],
      "name": "supportsInterface",
      "outputs": [
        {
          "internalType": "bool",
          "name": "",
          "type": "bool"
        }
      ],
      "stateMutability": "view",
      "type": "function"
    },
    {
      "inputs": [],
      "name": "symbol",
      "outputs": [
        {
          "internalType": "string",
          "name": "",
          "type": "string"
        }
      ],
      "stateMutability": "view",
      "type": "function"
    },
    {
      "inputs": [
        {
          "internalType": "uint256",
          "name": "tokenId",
          "type": "uint256"
        }
      ],
      "name": "tokenURI",
      "outputs": [
        {
          "internalType": "string",
          "name": "",
          "type": "string"
        }
      ],
      "stateMutability": "view",
      "type": "function"
    },
    {
      "inputs": [
        {
          "internalType": "address",
          "name": "from",
          "type": "address"
        },
        {
          "internalType": "address",
          "name": "to",
          "type": "address"
        },
        {
          "internalType": "uint256",
          "name": "tokenId",
          "type": "uint256"
        }
      ],
      "name": "transferFrom",
      "outputs": [],
      "stateMutability": "nonpayable",
      "type": "function"
    },
    {
      "inputs": [
        {
          "internalType": "uint256",
          "name": "tokenId",
          "type": "uint256"
        },
        {
          "internalType": "string",
          "name": "tokenURI",
          "type": "string"
        }
      ],
      "name": "updateTokenURI",
      "outputs": [],
      "stateMutability": "nonpayable",
      "type": "function"
    }
  ],
  "bytecode": "0x60806040523480156200001157600080fd5b5060405162002cc138038062002cc1833981810160405281019062000037919062000239565b6040518060400160405280601081526020017f4d657461766572736520546f6b656e73000000000000000000000000000000008152506040518060400160405280600481526020017f4d455454000000000000000000000000000000000000000000000000000000008152508160009080519060200190620000bb9291906200011f565b508060019080519060200190620000d49291906200011f565b50505080600860006101000a81548173ffffffffffffffffffffffffffffffffffffffff021916908373ffffffffffffffffffffffffffffffffffffffff16021790555050620002d0565b8280546200012d906200029a565b90600052602060002090601f0160209004810192826200015157600085556200019d565b82601f106200016c57805160ff19168380011785556200019d565b828001600101855582156200019d579182015b828111156200019c5782518255916020019190600101906200017f565b5b509050620001ac9190620001b0565b5090565b5b80821115620001cb576000816000905550600101620001b1565b5090565b600080fd5b600073ffffffffffffffffffffffffffffffffffffffff82169050919050565b60006200020182620001d4565b9050919050565b6200021381620001f4565b81146200021f57600080fd5b50565b600081519050620002338162000208565b92915050565b600060208284031215620002525762000251620001cf565b5b6000620002628482850162000222565b91505092915050565b7f4e487b7100000000000000000000000000000000000000000000000000000000600052602260045260246000fd5b60006002820490506001821680620002b357607f821691505b60208210811415620002ca57620002c96200026b565b5b50919050565b6129e180620002e06000396000f3fe608060405234801561001057600080fd5b50600436106100f55760003560e01c806345576f9411610097578063a22cb46511610066578063a22cb46514610296578063b88d4fde146102b2578063c87b56dd146102ce578063e985e9c5146102fe576100f5565b806345576f94146101e85780636352211e1461021857806370a082311461024857806395d89b4114610278576100f5565b8063095ea7b3116100d3578063095ea7b31461017857806318e97fd11461019457806323b872dd146101b057806342842e0e146101cc576100f5565b806301ffc9a7146100fa57806306fdde031461012a578063081812fc14610148575b600080fd5b610114600480360381019061010f9190611afb565b61032e565b6040516101219190611b43565b60405180910390f35b61013261038f565b60405161013f9190611bf7565b60405180910390f35b610162600480360381019061015d9190611c4f565b610421565b60405161016f9190611cbd565b60405180910390f35b610192600480360381019061018d9190611d04565b610467565b005b6101ae60048036038101906101a99190611e79565b61057f565b005b6101ca60048036038101906101c59190611ed5565b61058d565b005b6101e660048036038101906101e19190611ed5565b6105ed565b005b61020260048036038101906101fd9190611f28565b61060d565b60405161020f9190611f80565b60405180910390f35b610232600480360381019061022d9190611c4f565b610671565b60405161023f9190611cbd565b60405180910390f35b610262600480360381019061025d9190611f9b565b6106f8565b60405161026f9190611f80565b60405180910390f35b6102806107b0565b60405161028d9190611bf7565b60405180910390f35b6102b060048036038101906102ab9190611ff4565b610842565b005b6102cc60048036038101906102c791906120d5565b610858565b005b6102e860048036038101906102e39190611c4f565b6108ba565b6040516102f59190611bf7565b60405180910390f35b61031860048036038101906103139190612158565b6109cd565b6040516103259190611b43565b60405180910390f35b6000634906490660e01b7bffffffffffffffffffffffffffffffffffffffffffffffffffffffff1916827bffffffffffffffffffffffffffffffffffffffffffffffffffffffff19161480610388575061038782610a61565b5b9050919050565b60606000805461039e906121c7565b80601f01602080910402602001604051908101604052809291908181526020018280546103ca906121c7565b80156104175780601f106103ec57610100808354040283529160200191610417565b820191906000526020600020905b8154815290600101906020018083116103fa57829003601f168201915b5050505050905090565b600061042c82610b43565b6004600083815260200190815260200160002060009054906101000a900473ffffffffffffffffffffffffffffffffffffffff169050919050565b600061047282610671565b90508073ffffffffffffffffffffffffffffffffffffffff168373ffffffffffffffffffffffffffffffffffffffff1614156104e3576040517f08c379a00000000000000000000000000000000000000000000000000000000081526004016104da9061226b565b60405180910390fd5b8073ffffffffffffffffffffffffffffffffffffffff16610502610b8e565b73ffffffffffffffffffffffffffffffffffffffff16148061053157506105308161052b610b8e565b6109cd565b5b610570576040517f08c379a0000000000000000000000000000000000000000000000000000000008152600401610567906122fd565b60405180910390fd5b61057a8383610b96565b505050565b6105898282610c4f565b5050565b61059e610598610b8e565b82610cfa565b6105dd576040517f08c379a00000000000000000000000000000000000000000000000000000000081526004016105d49061238f565b60405180910390fd5b6105e8838383610d8f565b505050565b61060883838360405180602001604052806000815250610858565b505050565b60006106196007611089565b6000610625600761109f565b905061063133826110ad565b61063b8184610c4f565b610668600860009054906101000a900473ffffffffffffffffffffffffffffffffffffffff166001610842565b80915050919050565b60008061067d836112cb565b9050600073ffffffffffffffffffffffffffffffffffffffff168173ffffffffffffffffffffffffffffffffffffffff1614156106ef576040517f08c379a00000000000000000000000000000000000000000000000000000000081526004016106e6906123fb565b60405180910390fd5b80915050919050565b60008073ffffffffffffffffffffffffffffffffffffffff168273ffffffffffffffffffffffffffffffffffffffff161415610769576040517f08c379a00000000000000000000000000000000000000000000000000000000081526004016107609061248d565b60405180910390fd5b600360008373ffffffffffffffffffffffffffffffffffffffff1673ffffffffffffffffffffffffffffffffffffffff168152602001908152602001600020549050919050565b6060600180546107bf906121c7565b80601f01602080910402602001604051908101604052809291908181526020018280546107eb906121c7565b80156108385780601f1061080d57610100808354040283529160200191610838565b820191906000526020600020905b81548152906001019060200180831161081b57829003601f168201915b5050505050905090565b61085461084d610b8e565b8383611308565b5050565b610869610863610b8e565b83610cfa565b6108a8576040517f08c379a000000000000000000000000000000000000000000000000000000000815260040161089f9061238f565b60405180910390fd5b6108b484848484611475565b50505050565b60606108c582610b43565b60006006600084815260200190815260200160002080546108e5906121c7565b80601f0160208091040260200160405190810160405280929190818152602001828054610911906121c7565b801561095e5780601f106109335761010080835404028352916020019161095e565b820191906000526020600020905b81548152906001019060200180831161094157829003601f168201915b50505050509050600061096f6114d1565b90506000815114156109855781925050506109c8565b6000825111156109ba5780826040516020016109a29291906124e9565b604051602081830303815290604052925050506109c8565b6109c3846114e8565b925050505b919050565b6000600560008473ffffffffffffffffffffffffffffffffffffffff1673ffffffffffffffffffffffffffffffffffffffff16815260200190815260200160002060008373ffffffffffffffffffffffffffffffffffffffff1673ffffffffffffffffffffffffffffffffffffffff16815260200190815260200160002060009054906101000a900460ff16905092915050565b60007f80ac58cd000000000000000000000000000000000000000000000000000000007bffffffffffffffffffffffffffffffffffffffffffffffffffffffff1916827bffffffffffffffffffffffffffffffffffffffffffffffffffffffff19161480610b2c57507f5b5e139f000000000000000000000000000000000000000000000000000000007bffffffffffffffffffffffffffffffffffffffffffffffffffffffff1916827bffffffffffffffffffffffffffffffffffffffffffffffffffffffff1916145b80610b3c5750610b3b82611550565b5b9050919050565b610b4c816115ba565b610b8b576040517f08c379a0000000000000000000000000000000000000000000000000000000008152600401610b82906123fb565b60405180910390fd5b50565b600033905090565b816004600083815260200190815260200160002060006101000a81548173ffffffffffffffffffffffffffffffffffffffff021916908373ffffffffffffffffffffffffffffffffffffffff160217905550808273ffffffffffffffffffffffffffffffffffffffff16610c0983610671565b73ffffffffffffffffffffffffffffffffffffffff167f8c5be1e5ebec7d5bd14f71427d1e84f3dd0314c0f7b2291e5b200ac8c7c3b92560405160405180910390a45050565b610c58826115ba565b610c97576040517f08c379a0000000000000000000000000000000000000000000000000000000008152600401610c8e9061257f565b60405180910390fd5b80600660008481526020019081526020016000209080519060200190610cbe9291906119ec565b507ff8e1a15aba9398e019f0b49df1a4fde98ee17ae345cb5f6b5e2c27f5033e8ce782604051610cee9190611f80565b60405180910390a15050565b600080610d0683610671565b90508073ffffffffffffffffffffffffffffffffffffffff168473ffffffffffffffffffffffffffffffffffffffff161480610d485750610d4781856109cd565b5b80610d8657508373ffffffffffffffffffffffffffffffffffffffff16610d6e84610421565b73ffffffffffffffffffffffffffffffffffffffff16145b91505092915050565b8273ffffffffffffffffffffffffffffffffffffffff16610daf82610671565b73ffffffffffffffffffffffffffffffffffffffff1614610e05576040517f08c379a0000000000000000000000000000000000000000000000000000000008152600401610dfc90612611565b60405180910390fd5b600073ffffffffffffffffffffffffffffffffffffffff168273ffffffffffffffffffffffffffffffffffffffff161415610e75576040517f08c379a0000000000000000000000000000000000000000000000000000000008152600401610e6c906126a3565b60405180910390fd5b610e8283838360016115fb565b8273ffffffffffffffffffffffffffffffffffffffff16610ea282610671565b73ffffffffffffffffffffffffffffffffffffffff1614610ef8576040517f08c379a0000000000000000000000000000000000000000000000000000000008152600401610eef90612611565b60405180910390fd5b6004600082815260200190815260200160002060006101000a81549073ffffffffffffffffffffffffffffffffffffffff02191690556001600360008573ffffffffffffffffffffffffffffffffffffffff1673ffffffffffffffffffffffffffffffffffffffff168152602001908152602001600020600082825403925050819055506001600360008473ffffffffffffffffffffffffffffffffffffffff1673ffffffffffffffffffffffffffffffffffffffff16815260200190815260200160002060008282540192505081905550816002600083815260200190815260200160002060006101000a81548173ffffffffffffffffffffffffffffffffffffffff021916908373ffffffffffffffffffffffffffffffffffffffff160217905550808273ffffffffffffffffffffffffffffffffffffffff168473ffffffffffffffffffffffffffffffffffffffff167fddf252ad1be2c89b69c2b068fc378daa952ba7f163c4a11628f55a4df523b3ef60405160405180910390a46110848383836001611601565b505050565b6001816000016000828254019250508190555050565b600081600001549050919050565b600073ffffffffffffffffffffffffffffffffffffffff168273ffffffffffffffffffffffffffffffffffffffff16141561111d576040517f08c379a00000000000000000000000000000000000000000000000000000000081526004016111149061270f565b60405180910390fd5b611126816115ba565b15611166576040517f08c379a000000000000000000000000000000000000000000000000000000000815260040161115d9061277b565b60405180910390fd5b6111746000838360016115fb565b61117d816115ba565b156111bd576040517f08c379a00000000000000000000000000000000000000000000000000000000081526004016111b49061277b565b60405180910390fd5b6001600360008473ffffffffffffffffffffffffffffffffffffffff1673ffffffffffffffffffffffffffffffffffffffff16815260200190815260200160002060008282540192505081905550816002600083815260200190815260200160002060006101000a81548173ffffffffffffffffffffffffffffffffffffffff021916908373ffffffffffffffffffffffffffffffffffffffff160217905550808273ffffffffffffffffffffffffffffffffffffffff16600073ffffffffffffffffffffffffffffffffffffffff167fddf252ad1be2c89b69c2b068fc378daa952ba7f163c4a11628f55a4df523b3ef60405160405180910390a46112c7600083836001611601565b5050565b60006002600083815260200190815260200160002060009054906101000a900473ffffffffffffffffffffffffffffffffffffffff169050919050565b8173ffffffffffffffffffffffffffffffffffffffff168373ffffffffffffffffffffffffffffffffffffffff161415611377576040517f08c379a000000000000000000000000000000000000000000000000000000000815260040161136e906127e7565b60405180910390fd5b80600560008573ffffffffffffffffffffffffffffffffffffffff1673ffffffffffffffffffffffffffffffffffffffff16815260200190815260200160002060008473ffffffffffffffffffffffffffffffffffffffff1673ffffffffffffffffffffffffffffffffffffffff16815260200190815260200160002060006101000a81548160ff0219169083151502179055508173ffffffffffffffffffffffffffffffffffffffff168373ffffffffffffffffffffffffffffffffffffffff167f17307eab39ab6107e8899845ad3d59bd9653f200f220920489ca2b5937696c31836040516114689190611b43565b60405180910390a3505050565b611480848484610d8f565b61148c84848484611607565b6114cb576040517f08c379a00000000000000000000000000000000000000000000000000000000081526004016114c290612879565b60405180910390fd5b50505050565b606060405180602001604052806000815250905090565b60606114f382610b43565b60006114fd6114d1565b9050600081511161151d5760405180602001604052806000815250611548565b806115278461179e565b6040516020016115389291906124e9565b6040516020818303038152906040525b915050919050565b60007f01ffc9a7000000000000000000000000000000000000000000000000000000007bffffffffffffffffffffffffffffffffffffffffffffffffffffffff1916827bffffffffffffffffffffffffffffffffffffffffffffffffffffffff1916149050919050565b60008073ffffffffffffffffffffffffffffffffffffffff166115dc836112cb565b73ffffffffffffffffffffffffffffffffffffffff1614159050919050565b50505050565b50505050565b60006116288473ffffffffffffffffffffffffffffffffffffffff16611876565b15611791578373ffffffffffffffffffffffffffffffffffffffff1663150b7a02611651610b8e565b8786866040518563ffffffff1660e01b815260040161167394939291906128ee565b602060405180830381600087803b15801561168d57600080fd5b505af19250505080156116be57506040513d601f19601f820116820180604052508101906116bb919061294f565b60015b611741573d80600081146116ee576040519150601f19603f3d011682016040523d82523d6000602084013e6116f3565b606091505b50600081511415611739576040517f08c379a000000000000000000000000000000000000000000000000000000000815260040161173090612879565b60405180910390fd5b805181602001fd5b63150b7a0260e01b7bffffffffffffffffffffffffffffffffffffffffffffffffffffffff1916817bffffffffffffffffffffffffffffffffffffffffffffffffffffffff191614915050611796565b600190505b949350505050565b6060600060016117ad84611899565b01905060008167ffffffffffffffff8111156117cc576117cb611d4e565b5b6040519080825280601f01601f1916602001820160405280156117fe5781602001600182028036833780820191505090505b509050600082602001820190505b60011561186b578080600190039150507f3031323334353637383961626364656600000000000000000000000000000000600a86061a8153600a85816118555761185461297c565b5b04945060008514156118665761186b565b61180c565b819350505050919050565b6000808273ffffffffffffffffffffffffffffffffffffffff163b119050919050565b600080600090507a184f03e93ff9f4daa797ed6e38ed64bf6a1f01000000000000000083106118f7577a184f03e93ff9f4daa797ed6e38ed64bf6a1f01000000000000000083816118ed576118ec61297c565b5b0492506040810190505b6d04ee2d6d415b85acef81000000008310611934576d04ee2d6d415b85acef8100000000838161192a5761192961297c565b5b0492506020810190505b662386f26fc10000831061196357662386f26fc1000083816119595761195861297c565b5b0492506010810190505b6305f5e100831061198c576305f5e10083816119825761198161297c565b5b0492506008810190505b61271083106119b15761271083816119a7576119a661297c565b5b0492506004810190505b606483106119d457606483816119ca576119c961297c565b5b0492506002810190505b600a83106119e3576001810190505b80915050919050565b8280546119f8906121c7565b90600052602060002090601f016020900481019282611a1a5760008555611a61565b82601f10611a3357805160ff1916838001178555611a61565b82800160010185558215611a61579182015b82811115611a60578251825591602001919060010190611a45565b5b509050611a6e9190611a72565b5090565b5b80821115611a8b576000816000905550600101611a73565b5090565b6000604051905090565b600080fd5b600080fd5b60007fffffffff0000000000000000000000000000000000000000000000000000000082169050919050565b611ad881611aa3565b8114611ae357600080fd5b50565b600081359050611af581611acf565b92915050565b600060208284031215611b1157611b10611a99565b5b6000611b1f84828501611ae6565b91505092915050565b60008115159050919050565b611b3d81611b28565b82525050565b6000602082019050611b586000830184611b34565b92915050565b600081519050919050565b600082825260208201905092915050565b60005b83811015611b98578082015181840152602081019050611b7d565b83811115611ba7576000848401525b50505050565b6000601f19601f8301169050919050565b6000611bc982611b5e565b611bd38185611b69565b9350611be3818560208601611b7a565b611bec81611bad565b840191505092915050565b60006020820190508181036000830152611c118184611bbe565b905092915050565b6000819050919050565b611c2c81611c19565b8114611c3757600080fd5b50565b600081359050611c4981611c23565b92915050565b600060208284031215611c6557611c64611a99565b5b6000611c7384828501611c3a565b91505092915050565b600073ffffffffffffffffffffffffffffffffffffffff82169050919050565b6000611ca782611c7c565b9050919050565b611cb781611c9c565b82525050565b6000602082019050611cd26000830184611cae565b92915050565b611ce181611c9c565b8114611cec57600080fd5b50565b600081359050611cfe81611cd8565b92915050565b60008060408385031215611d1b57611d1a611a99565b5b6000611d2985828601611cef565b9250506020611d3a85828601611c3a565b9150509250929050565b600080fd5b600080fd5b7f4e487b7100000000000000000000000000000000000000000000000000000000600052604160045260246000fd5b611d8682611bad565b810181811067ffffffffffffffff82111715611da557611da4611d4e565b5b80604052505050565b6000611db8611a8f565b9050611dc48282611d7d565b919050565b600067ffffffffffffffff821115611de457611de3611d4e565b5b611ded82611bad565b9050602081019050919050565b82818337600083830152505050565b6000611e1c611e1784611dc9565b611dae565b905082815260208101848484011115611e3857611e37611d49565b5b611e43848285611dfa565b509392505050565b600082601f830112611e6057611e5f611d44565b5b8135611e70848260208601611e09565b91505092915050565b60008060408385031215611e9057611e8f611a99565b5b6000611e9e85828601611c3a565b925050602083013567ffffffffffffffff811115611ebf57611ebe611a9e565b5b611ecb85828601611e4b565b9150509250929050565b600080600060608486031215611eee57611eed611a99565b5b6000611efc86828701611cef565b9350506020611f0d86828701611cef565b9250506040611f1e86828701611c3a565b9150509250925092565b600060208284031215611f3e57611f3d611a99565b5b600082013567ffffffffffffffff811115611f5c57611f5b611a9e565b5b611f6884828501611e4b565b91505092915050565b611f7a81611c19565b82525050565b6000602082019050611f956000830184611f71565b92915050565b600060208284031215611fb157611fb0611a99565b5b6000611fbf84828501611cef565b91505092915050565b611fd181611b28565b8114611fdc57600080fd5b50565b600081359050611fee81611fc8565b92915050565b6000806040838503121561200b5761200a611a99565b5b600061201985828601611cef565b925050602061202a85828601611fdf565b9150509250929050565b600067ffffffffffffffff82111561204f5761204e611d4e565b5b61205882611bad565b9050602081019050919050565b600061207861207384612034565b611dae565b90508281526020810184848401111561209457612093611d49565b5b61209f848285611dfa565b509392505050565b600082601f8301126120bc576120bb611d44565b5b81356120cc848260208601612065565b91505092915050565b600080600080608085870312156120ef576120ee611a99565b5b60006120fd87828801611cef565b945050602061210e87828801611cef565b935050604061211f87828801611c3a565b925050606085013567ffffffffffffffff8111156121405761213f611a9e565b5b61214c878288016120a7565b91505092959194509250565b6000806040838503121561216f5761216e611a99565b5b600061217d85828601611cef565b925050602061218e85828601611cef565b9150509250929050565b7f4e487b7100000000000000000000000000000000000000000000000000000000600052602260045260246000fd5b600060028204905060018216806121df57607f821691505b602082108114156121f3576121f2612198565b5b50919050565b7f4552433732313a20617070726f76616c20746f2063757272656e74206f776e6560008201527f7200000000000000000000000000000000000000000000000000000000000000602082015250565b6000612255602183611b69565b9150612260826121f9565b604082019050919050565b6000602082019050818103600083015261228481612248565b9050919050565b7f4552433732313a20617070726f76652063616c6c6572206973206e6f7420746f60008201527f6b656e206f776e6572206f7220617070726f76656420666f7220616c6c000000602082015250565b60006122e7603d83611b69565b91506122f28261228b565b604082019050919050565b60006020820190508181036000830152612316816122da565b9050919050565b7f4552433732313a2063616c6c6572206973206e6f7420746f6b656e206f776e6560008201527f72206f7220617070726f76656400000000000000000000000000000000000000602082015250565b6000612379602d83611b69565b91506123848261231d565b604082019050919050565b600060208201905081810360008301526123a88161236c565b9050919050565b7f4552433732313a20696e76616c696420746f6b656e2049440000000000000000600082015250565b60006123e5601883611b69565b91506123f0826123af565b602082019050919050565b60006020820190508181036000830152612414816123d8565b9050919050565b7f4552433732313a2061646472657373207a65726f206973206e6f74206120766160008201527f6c6964206f776e65720000000000000000000000000000000000000000000000602082015250565b6000612477602983611b69565b91506124828261241b565b604082019050919050565b600060208201905081810360008301526124a68161246a565b9050919050565b600081905092915050565b60006124c382611b5e565b6124cd81856124ad565b93506124dd818560208601611b7a565b80840191505092915050565b60006124f582856124b8565b915061250182846124b8565b91508190509392505050565b7f45524337323155524953746f726167653a2055524920736574206f66206e6f6e60008201527f6578697374656e7420746f6b656e000000000000000000000000000000000000602082015250565b6000612569602e83611b69565b91506125748261250d565b604082019050919050565b600060208201905081810360008301526125988161255c565b9050919050565b7f4552433732313a207472616e736665722066726f6d20696e636f72726563742060008201527f6f776e6572000000000000000000000000000000000000000000000000000000602082015250565b60006125fb602583611b69565b91506126068261259f565b604082019050919050565b6000602082019050818103600083015261262a816125ee565b9050919050565b7f4552433732313a207472616e7366657220746f20746865207a65726f2061646460008201527f7265737300000000000000000000000000000000000000000000000000000000602082015250565b600061268d602483611b69565b915061269882612631565b604082019050919050565b600060208201905081810360008301526126bc81612680565b9050919050565b7f4552433732313a206d696e7420746f20746865207a65726f2061646472657373600082015250565b60006126f9602083611b69565b9150612704826126c3565b602082019050919050565b60006020820190508181036000830152612728816126ec565b9050919050565b7f4552433732313a20746f6b656e20616c7265616479206d696e74656400000000600082015250565b6000612765601c83611b69565b91506127708261272f565b602082019050919050565b6000602082019050818103600083015261279481612758565b9050919050565b7f4552433732313a20617070726f766520746f2063616c6c657200000000000000600082015250565b60006127d1601983611b69565b91506127dc8261279b565b602082019050919050565b60006020820190508181036000830152612800816127c4565b9050919050565b7f4552433732313a207472616e7366657220746f206e6f6e20455243373231526560008201527f63656976657220696d706c656d656e7465720000000000000000000000000000602082015250565b6000612863603283611b69565b915061286e82612807565b604082019050919050565b6000602082019050818103600083015261289281612856565b9050919050565b600081519050919050565b600082825260208201905092915050565b60006128c082612899565b6128ca81856128a4565b93506128da818560208601611b7a565b6128e381611bad565b840191505092915050565b60006080820190506129036000830187611cae565b6129106020830186611cae565b61291d6040830185611f71565b818103606083015261292f81846128b5565b905095945050505050565b60008151905061294981611acf565b92915050565b60006020828403121561296557612964611a99565b5b60006129738482850161293a565b91505092915050565b7f4e487b7100000000000000000000000000000000000000000000000000000000600052601260045260246000fdfea26469706673582212209ff4068df81871bbda94feb9a73126e32fd56ac4aebc415fcb8e62762a33fd9764736f6c63430008090033",
  "linkReferences": {},
  "deployedLinkReferences": {}
}