{
  "_format": "hh-sol-artifact-1",
  "contractName": "Barter",
  "sourceName": "contracts/Barter.sol",
  "abi": [
    {
      "inputs": [],
      "stateMutability": "nonpayable",
      "type": "constructor"
    },
    {
      "anonymous": false,
      "inputs": [
        {
          "indexed": true,
          "internalType": "uint256",
          "name": "itemId",
          "type": "uint256"
        },
        {
          "indexed": true,
          "internalType": "address",
          "name": "nftContract",
          "type": "address"
        },
        {
          "indexed": true,
          "internalType": "uint256",
          "name": "tokenId",
          "type": "uint256"
        },
        {
          "indexed": false,
          "internalType": "address",
          "name": "seller",
          "type": "address"
        },
        {
          "indexed": false,
          "internalType": "address",
          "name": "owner",
          "type": "address"
        },
        {
          "indexed": false,
          "internalType": "uint256",
          "name": "price",
          "type": "uint256"
        },
        {
          "indexed": false,
          "internalType": "bool",
          "name": "sold",
          "type": "bool"
        }
      ],
      "name": "MarketItemCreated",
      "type": "event"
    },
    {
      "anonymous": false,
      "inputs": [
        {
          "indexed": true,
          "internalType": "address",
          "name": "s",
          "type": "address"
        }
      ],
      "name": "MessageSender",
      "type": "event"
    },
    {
      "inputs": [
        {
          "internalType": "address",
          "name": "nftContract",
          "type": "address"
        },
        {
          "internalType": "uint256",
          "name": "itemId1",
          "type": "uint256"
        },
        {
          "internalType": "uint256",
          "name": "itemId2",
          "type": "uint256"
        }
      ],
      "name": "acceptNFT",
      "outputs": [],
      "stateMutability": "payable",
      "type": "function"
    },
    {
      "inputs": [
        {
          "internalType": "address",
          "name": "nftContract",
          "type": "address"
        },
        {
          "internalType": "uint256",
          "name": "tokenId",
          "type": "uint256"
        },
        {
          "internalType": "uint256",
          "name": "price",
          "type": "uint256"
        }
      ],
      "name": "createMarketItem",
      "outputs": [],
      "stateMutability": "payable",
      "type": "function"
    },
    {
      "inputs": [
        {
          "internalType": "address",
          "name": "nftContract",
          "type": "address"
        },
        {
          "internalType": "uint256",
          "name": "itemId",
          "type": "uint256"
        }
      ],
      "name": "createMarketSale",
      "outputs": [],
      "stateMutability": "payable",
      "type": "function"
    },
    {
      "inputs": [
        {
          "internalType": "address",
          "name": "nftContract",
          "type": "address"
        },
        {
          "internalType": "uint256",
          "name": "itemId",
          "type": "uint256"
        }
      ],
      "name": "exchangeNFT",
      "outputs": [],
      "stateMutability": "payable",
      "type": "function"
    },
    {
      "inputs": [],
      "name": "fetchItemsCreated",
      "outputs": [
        {
          "components": [
            {
              "internalType": "uint256",
              "name": "itemId",
              "type": "uint256"
            },
            {
              "internalType": "address",
              "name": "nftContract",
              "type": "address"
            },
            {
              "internalType": "uint256",
              "name": "tokenId",
              "type": "uint256"
            },
            {
              "internalType": "address payable",
              "name": "seller",
              "type": "address"
            },
            {
              "internalType": "address payable",
              "name": "owner",
              "type": "address"
            },
            {
              "internalType": "uint256",
              "name": "price",
              "type": "uint256"
            },
            {
              "internalType": "bool",
              "name": "sold",
              "type": "bool"
            }
          ],
          "internalType": "struct Barter.Marketitem[]",
          "name": "",
          "type": "tuple[]"
        }
      ],
      "stateMutability": "view",
      "type": "function"
    },
    {
      "inputs": [],
      "name": "fetchMarketItems",
      "outputs": [
        {
          "components": [
            {
              "internalType": "uint256",
              "name": "itemId",
              "type": "uint256"
            },
            {
              "internalType": "address",
              "name": "nftContract",
              "type": "address"
            },
            {
              "internalType": "uint256",
              "name": "tokenId",
              "type": "uint256"
            },
            {
              "internalType": "address payable",
              "name": "seller",
              "type": "address"
            },
            {
              "internalType": "address payable",
              "name": "owner",
              "type": "address"
            },
            {
              "internalType": "uint256",
              "name": "price",
              "type": "uint256"
            },
            {
              "internalType": "bool",
              "name": "sold",
              "type": "bool"
            }
          ],
          "internalType": "struct Barter.Marketitem[]",
          "name": "",
          "type": "tuple[]"
        }
      ],
      "stateMutability": "view",
      "type": "function"
    },
    {
      "inputs": [],
      "name": "fetchMyNFTs",
      "outputs": [
        {
          "components": [
            {
              "internalType": "uint256",
              "name": "itemId",
              "type": "uint256"
            },
            {
              "internalType": "address",
              "name": "nftContract",
              "type": "address"
            },
            {
              "internalType": "uint256",
              "name": "tokenId",
              "type": "uint256"
            },
            {
              "internalType": "address payable",
              "name": "seller",
              "type": "address"
            },
            {
              "internalType": "address payable",
              "name": "owner",
              "type": "address"
            },
            {
              "internalType": "uint256",
              "name": "price",
              "type": "uint256"
            },
            {
              "internalType": "bool",
              "name": "sold",
              "type": "bool"
            }
          ],
          "internalType": "struct Barter.Marketitem[]",
          "name": "",
          "type": "tuple[]"
        }
      ],
      "stateMutability": "view",
      "type": "function"
    },
    {
      "inputs": [],
      "name": "getListingPrice",
      "outputs": [
        {
          "internalType": "uint256",
          "name": "",
          "type": "uint256"
        }
      ],
      "stateMutability": "view",
      "type": "function"
    }
  ],
  "bytecode": "0x608060405266038d7ea4c6800060045534801561001b57600080fd5b50600160008190555033600360006101000a81548173ffffffffffffffffffffffffffffffffffffffff021916908373ffffffffffffffffffffffffffffffffffffffff160217905550611ebd806100746000396000f3fe60806040526004361061007b5760003560e01c8063493439a81161004e578063493439a81461011d57806358eb2df514610139578063c23b139e14610155578063f064c32e146101715761007b565b80630f08efe01461008057806312e85585146100ab578063202e3740146100d657806326e1cf3314610101575b600080fd5b34801561008c57600080fd5b5061009561019c565b6040516100a291906118b9565b60405180910390f35b3480156100b757600080fd5b506100c0610459565b6040516100cd91906118ea565b60405180910390f35b3480156100e257600080fd5b506100eb610463565b6040516100f891906118b9565b60405180910390f35b61011b60048036038101906101169190611962565b6107b1565b005b610137600480360381019061013291906119a2565b610a9d565b005b610153600480360381019061014e91906119a2565b610cd4565b005b61016f600480360381019061016a9190611962565b610ff0565b005b34801561017d57600080fd5b50610186611299565b60405161019391906118b9565b60405180910390f35b606060006101aa60016115e7565b90506000808267ffffffffffffffff8111156101c9576101c86119f5565b5b60405190808252806020026020018201604052801561020257816020015b6101ef611665565b8152602001906001900390816101e75790505b50905060005b8381101561044f57600073ffffffffffffffffffffffffffffffffffffffff16600560006001846102399190611a53565b815260200190815260200160002060040160009054906101000a900473ffffffffffffffffffffffffffffffffffffffff1673ffffffffffffffffffffffffffffffffffffffff16141561043c5760006005600060018461029a9190611a53565b81526020019081526020016000206000015490506000600560008381526020019081526020016000209050806040518060e0016040529081600082015481526020016001820160009054906101000a900473ffffffffffffffffffffffffffffffffffffffff1673ffffffffffffffffffffffffffffffffffffffff1673ffffffffffffffffffffffffffffffffffffffff168152602001600282015481526020016003820160009054906101000a900473ffffffffffffffffffffffffffffffffffffffff1673ffffffffffffffffffffffffffffffffffffffff1673ffffffffffffffffffffffffffffffffffffffff1681526020016004820160009054906101000a900473ffffffffffffffffffffffffffffffffffffffff1673ffffffffffffffffffffffffffffffffffffffff1673ffffffffffffffffffffffffffffffffffffffff168152602001600582015481526020016006820160009054906101000a900460ff16151515158152505084868151811061041f5761041e611aa9565b5b60200260200101819052506001856104379190611a53565b945050505b808061044790611ad8565b915050610208565b5080935050505090565b6000600454905090565b6060600061047160016115e7565b905060008060005b8381101561051a573373ffffffffffffffffffffffffffffffffffffffff16600560006001846104a99190611a53565b815260200190815260200160002060030160009054906101000a900473ffffffffffffffffffffffffffffffffffffffff1673ffffffffffffffffffffffffffffffffffffffff161415610507576001836105049190611a53565b92505b808061051290611ad8565b915050610479565b5060008267ffffffffffffffff811115610537576105366119f5565b5b60405190808252806020026020018201604052801561057057816020015b61055d611665565b8152602001906001900390816105555790505b50905060005b848110156107a6573373ffffffffffffffffffffffffffffffffffffffff16600560006001846105a69190611a53565b815260200190815260200160002060030160009054906101000a900473ffffffffffffffffffffffffffffffffffffffff1673ffffffffffffffffffffffffffffffffffffffff1614156107935760006001826106039190611a53565b90506000600560008381526020019081526020016000209050806040518060e0016040529081600082015481526020016001820160009054906101000a900473ffffffffffffffffffffffffffffffffffffffff1673ffffffffffffffffffffffffffffffffffffffff1673ffffffffffffffffffffffffffffffffffffffff168152602001600282015481526020016003820160009054906101000a900473ffffffffffffffffffffffffffffffffffffffff1673ffffffffffffffffffffffffffffffffffffffff1673ffffffffffffffffffffffffffffffffffffffff1681526020016004820160009054906101000a900473ffffffffffffffffffffffffffffffffffffffff1673ffffffffffffffffffffffffffffffffffffffff1673ffffffffffffffffffffffffffffffffffffffff168152602001600582015481526020016006820160009054906101000a900460ff16151515158152505084868151811061077657610775611aa9565b5b602002602001018190525060018561078e9190611a53565b945050505b808061079e90611ad8565b915050610576565b508094505050505090565b6107b96115f5565b60006005600083815260200190815260200160002060020154905060006107e060016115e7565b905060006005600085815260200190815260200160002060030160009054906101000a900473ffffffffffffffffffffffffffffffffffffffff1690506000600190505b828111610a8d573373ffffffffffffffffffffffffffffffffffffffff166005600083815260200190815260200160002060030160009054906101000a900473ffffffffffffffffffffffffffffffffffffffff1673ffffffffffffffffffffffffffffffffffffffff161415610a7a5760006005600083815260200190815260200160002060020154905060006005600084815260200190815260200160002060030160009054906101000a900473ffffffffffffffffffffffffffffffffffffffff1690508773ffffffffffffffffffffffffffffffffffffffff166323b872dd8583896040518463ffffffff1660e01b815260040161092893929190611b30565b600060405180830381600087803b15801561094257600080fd5b505af1158015610956573d6000803e3d6000fd5b505050508773ffffffffffffffffffffffffffffffffffffffff166323b872dd8286856040518463ffffffff1660e01b815260040161099793929190611b30565b600060405180830381600087803b1580156109b157600080fd5b505af11580156109c5573d6000803e3d6000fd5b50505050806005600089815260200190815260200160002060030160006101000a81548173ffffffffffffffffffffffffffffffffffffffff021916908373ffffffffffffffffffffffffffffffffffffffff160217905550836005600085815260200190815260200160002060030160006101000a81548173ffffffffffffffffffffffffffffffffffffffff021916908373ffffffffffffffffffffffffffffffffffffffff1602179055505050610a8d565b8080610a8590611ad8565b915050610824565b50505050610a99611645565b5050565b610aa56115f5565b60006005600084815260200190815260200160002060020154905060006005600085815260200190815260200160002060030160009054906101000a900473ffffffffffffffffffffffffffffffffffffffff169050600083905060006005600086815260200190815260200160002060030160009054906101000a900473ffffffffffffffffffffffffffffffffffffffff1690508673ffffffffffffffffffffffffffffffffffffffff166323b872dd8483876040518463ffffffff1660e01b8152600401610b7893929190611b30565b600060405180830381600087803b158015610b9257600080fd5b505af1158015610ba6573d6000803e3d6000fd5b505050508673ffffffffffffffffffffffffffffffffffffffff166323b872dd8285856040518463ffffffff1660e01b8152600401610be793929190611b30565b600060405180830381600087803b158015610c0157600080fd5b505af1158015610c15573d6000803e3d6000fd5b50505050806005600088815260200190815260200160002060030160006101000a81548173ffffffffffffffffffffffffffffffffffffffff021916908373ffffffffffffffffffffffffffffffffffffffff160217905550826005600087815260200190815260200160002060030160006101000a81548173ffffffffffffffffffffffffffffffffffffffff021916908373ffffffffffffffffffffffffffffffffffffffff16021790555050505050610ccf611645565b505050565b610cdc6115f5565b60008111610d1f576040517f08c379a0000000000000000000000000000000000000000000000000000000008152600401610d1690611bc4565b60405180910390fd5b6004543414610d63576040517f08c379a0000000000000000000000000000000000000000000000000000000008152600401610d5a90611c56565b60405180910390fd5b610d6d600161164f565b6000610d7960016115e7565b90506040518060e001604052808281526020018573ffffffffffffffffffffffffffffffffffffffff1681526020018481526020013373ffffffffffffffffffffffffffffffffffffffff168152602001600073ffffffffffffffffffffffffffffffffffffffff16815260200183815260200160001515815250600560008381526020019081526020016000206000820151816000015560208201518160010160006101000a81548173ffffffffffffffffffffffffffffffffffffffff021916908373ffffffffffffffffffffffffffffffffffffffff1602179055506040820151816002015560608201518160030160006101000a81548173ffffffffffffffffffffffffffffffffffffffff021916908373ffffffffffffffffffffffffffffffffffffffff16021790555060808201518160040160006101000a81548173ffffffffffffffffffffffffffffffffffffffff021916908373ffffffffffffffffffffffffffffffffffffffff16021790555060a0820151816005015560c08201518160060160006101000a81548160ff0219169083151502179055509050508373ffffffffffffffffffffffffffffffffffffffff1663095ea7b330856040518363ffffffff1660e01b8152600401610f58929190611c76565b600060405180830381600087803b158015610f7257600080fd5b505af1158015610f86573d6000803e3d6000fd5b50505050828473ffffffffffffffffffffffffffffffffffffffff16827f045dfa01dcba2b36aba1d3dc4a874f4b0c5d2fbeb8d2c4b34a7d88c8d8f929d1336000876000604051610fda9493929190611cae565b60405180910390a450610feb611645565b505050565b610ff86115f5565b600060056000838152602001908152602001600020600501549050600060056000848152602001908152602001600020600201549050813414611070576040517f08c379a000000000000000000000000000000000000000000000000000000000815260040161106790611d65565b60405180910390fd5b6005600084815260200190815260200160002060030160009054906101000a900473ffffffffffffffffffffffffffffffffffffffff1673ffffffffffffffffffffffffffffffffffffffff166108fc349081150290604051600060405180830381858888f193505050501580156110ec573d6000803e3d6000fd5b508373ffffffffffffffffffffffffffffffffffffffff166323b872dd6005600086815260200190815260200160002060030160009054906101000a900473ffffffffffffffffffffffffffffffffffffffff1633846040518463ffffffff1660e01b815260040161116093929190611de4565b600060405180830381600087803b15801561117a57600080fd5b505af115801561118e573d6000803e3d6000fd5b50505050336005600085815260200190815260200160002060030160006101000a81548173ffffffffffffffffffffffffffffffffffffffff021916908373ffffffffffffffffffffffffffffffffffffffff16021790555060016005600085815260200190815260200160002060060160006101000a81548160ff021916908315150217905550611220600261164f565b600360009054906101000a900473ffffffffffffffffffffffffffffffffffffffff1673ffffffffffffffffffffffffffffffffffffffff166108fc6004549081150290604051600060405180830381858888f1935050505015801561128a573d6000803e3d6000fd5b505050611295611645565b5050565b606060006112a760016115e7565b905060008060005b83811015611350573373ffffffffffffffffffffffffffffffffffffffff16600560006001846112df9190611a53565b815260200190815260200160002060030160009054906101000a900473ffffffffffffffffffffffffffffffffffffffff1673ffffffffffffffffffffffffffffffffffffffff16141561133d5760018361133a9190611a53565b92505b808061134890611ad8565b9150506112af565b5060008267ffffffffffffffff81111561136d5761136c6119f5565b5b6040519080825280602002602001820160405280156113a657816020015b611393611665565b81526020019060019003908161138b5790505b50905060005b848110156115dc573373ffffffffffffffffffffffffffffffffffffffff16600560006001846113dc9190611a53565b815260200190815260200160002060030160009054906101000a900473ffffffffffffffffffffffffffffffffffffffff1673ffffffffffffffffffffffffffffffffffffffff1614156115c95760006001826114399190611a53565b90506000600560008381526020019081526020016000209050806040518060e0016040529081600082015481526020016001820160009054906101000a900473ffffffffffffffffffffffffffffffffffffffff1673ffffffffffffffffffffffffffffffffffffffff1673ffffffffffffffffffffffffffffffffffffffff168152602001600282015481526020016003820160009054906101000a900473ffffffffffffffffffffffffffffffffffffffff1673ffffffffffffffffffffffffffffffffffffffff1673ffffffffffffffffffffffffffffffffffffffff1681526020016004820160009054906101000a900473ffffffffffffffffffffffffffffffffffffffff1673ffffffffffffffffffffffffffffffffffffffff1673ffffffffffffffffffffffffffffffffffffffff168152602001600582015481526020016006820160009054906101000a900460ff1615151515815250508486815181106115ac576115ab611aa9565b5b60200260200101819052506001856115c49190611a53565b945050505b80806115d490611ad8565b9150506113ac565b508094505050505090565b600081600001549050919050565b6002600054141561163b576040517f08c379a000000000000000000000000000000000000000000000000000000000815260040161163290611e67565b60405180910390fd5b6002600081905550565b6001600081905550565b6001816000016000828254019250508190555050565b6040518060e0016040528060008152602001600073ffffffffffffffffffffffffffffffffffffffff16815260200160008152602001600073ffffffffffffffffffffffffffffffffffffffff168152602001600073ffffffffffffffffffffffffffffffffffffffff168152602001600081526020016000151581525090565b600081519050919050565b600082825260208201905092915050565b6000819050602082019050919050565b6000819050919050565b61172581611712565b82525050565b600073ffffffffffffffffffffffffffffffffffffffff82169050919050565b60006117568261172b565b9050919050565b6117668161174b565b82525050565b60006117778261172b565b9050919050565b6117878161176c565b82525050565b60008115159050919050565b6117a28161178d565b82525050565b60e0820160008201516117be600085018261171c565b5060208201516117d1602085018261175d565b5060408201516117e4604085018261171c565b5060608201516117f7606085018261177e565b50608082015161180a608085018261177e565b5060a082015161181d60a085018261171c565b5060c082015161183060c0850182611799565b50505050565b600061184283836117a8565b60e08301905092915050565b6000602082019050919050565b6000611866826116e6565b61187081856116f1565b935061187b83611702565b8060005b838110156118ac5781516118938882611836565b975061189e8361184e565b92505060018101905061187f565b5085935050505092915050565b600060208201905081810360008301526118d3818461185b565b905092915050565b6118e481611712565b82525050565b60006020820190506118ff60008301846118db565b92915050565b600080fd5b6119138161174b565b811461191e57600080fd5b50565b6000813590506119308161190a565b92915050565b61193f81611712565b811461194a57600080fd5b50565b60008135905061195c81611936565b92915050565b6000806040838503121561197957611978611905565b5b600061198785828601611921565b92505060206119988582860161194d565b9150509250929050565b6000806000606084860312156119bb576119ba611905565b5b60006119c986828701611921565b93505060206119da8682870161194d565b92505060406119eb8682870161194d565b9150509250925092565b7f4e487b7100000000000000000000000000000000000000000000000000000000600052604160045260246000fd5b7f4e487b7100000000000000000000000000000000000000000000000000000000600052601160045260246000fd5b6000611a5e82611712565b9150611a6983611712565b9250827fffffffffffffffffffffffffffffffffffffffffffffffffffffffffffffffff03821115611a9e57611a9d611a24565b5b828201905092915050565b7f4e487b7100000000000000000000000000000000000000000000000000000000600052603260045260246000fd5b6000611ae382611712565b91507fffffffffffffffffffffffffffffffffffffffffffffffffffffffffffffffff821415611b1657611b15611a24565b5b600182019050919050565b611b2a8161174b565b82525050565b6000606082019050611b456000830186611b21565b611b526020830185611b21565b611b5f60408301846118db565b949350505050565b600082825260208201905092915050565b7f50726963652073686f756c64206174206c656173742062652031207765690000600082015250565b6000611bae601e83611b67565b9150611bb982611b78565b602082019050919050565b60006020820190508181036000830152611bdd81611ba1565b9050919050565b7f5072696365206d75737420626520657175616c20746f206c697374696e67207060008201527f7269636500000000000000000000000000000000000000000000000000000000602082015250565b6000611c40602483611b67565b9150611c4b82611be4565b604082019050919050565b60006020820190508181036000830152611c6f81611c33565b9050919050565b6000604082019050611c8b6000830185611b21565b611c9860208301846118db565b9392505050565b611ca88161178d565b82525050565b6000608082019050611cc36000830187611b21565b611cd06020830186611b21565b611cdd60408301856118db565b611cea6060830184611c9f565b95945050505050565b7f506c65617365207375626d6974207468652061736b696e67207072696365206960008201527f6e206f7264657220746f20636f6d706c65746520746865207075726368617365602082015250565b6000611d4f604083611b67565b9150611d5a82611cf3565b604082019050919050565b60006020820190508181036000830152611d7e81611d42565b9050919050565b6000819050919050565b6000611daa611da5611da08461172b565b611d85565b61172b565b9050919050565b6000611dbc82611d8f565b9050919050565b6000611dce82611db1565b9050919050565b611dde81611dc3565b82525050565b6000606082019050611df96000830186611dd5565b611e066020830185611b21565b611e1360408301846118db565b949350505050565b7f5265656e7472616e637947756172643a207265656e7472616e742063616c6c00600082015250565b6000611e51601f83611b67565b9150611e5c82611e1b565b602082019050919050565b60006020820190508181036000830152611e8081611e44565b905091905056fea26469706673582212204f42b476c19ff75df83608a592b836c2f3b22cc760671dcc01888ce6e3d64bc364736f6c63430008090033",
  "linkReferences": {},
  "deployedLinkReferences": {}
}